:060000000A128A11C72E4E
:100D5A00F900030EFA000A128A11B32E0313831242
:100D6A000C1CC22E031383160C1CC22E0A128A11E3
:100D7A001F270A128A110527C22E7A0E8300F90E3E
:100D8A00790E09000A128A11D126031383120B174E
:100D9A008B170A128A11002F0313831661308F00F2
:100DAA00031383128B01031383128F01031383121C
:100DBA008E01031383120F30900003138312B53090
:100DCA0081000A128A11052703138316243098001A
:100DDA00031783168701031383160C309900031730
:100DEA0083168901031383120330920003138312BB
:100DFA000C3097000800031383120C180527002FE4
:100E0A00031383121219E52F03138312810B0313A1
:100E1A00831210100A128A111F270313831200303B
:100E2A008E0080308F00031383120C100313831279
:100E3A001014080003138312F0010313831201082C
:100E4A0003138312F00003138312F60103138312B0
:100E5A00F70103138312F401031383120108031326
:100E6A008312F300031383123C30F3020313831239
:100E7A00031C472F0318F60A031383123C30F407A6
:100E8A00382F031383127408031383120313831274
:100E9A00F40803138312F002031383127008031376
:100EAA008312F40003138312700803138312F100F0
:100EBA00031383120A30F00203138312031C6F2FE9
:100ECA000318F70A03138312700803138312F50039
:100EDA007508592F03138312710803138312F20042
:100EEA00031383120A30F102031383120318812FAA
:100EFA00031C03138312720803138312F5000313EE
:100F0A008312760803138312770803138312750872
:100F1A00031383123030F607031383123030F707B6
:100F2A00031383123030F50703138312F8013C3E92
:100F3A00F8070C1603138312303099000313831237
:100F4A000C1EA52F0C1603138312760803138312A3
:100F5A009900031383120C1EB02F0C16031383126D
:100F6A003A309900031383120C1EB92F0C1603137F
:100F7A0083127708031383129900031383120C1E3A
:100F8A00C42F0C16031383127508031383129900D6
:100F9A00031383120C1ECF2F0C160A309900031369
:100FAA0083120C1ED62F031383120C1EDA2F03137F
:100FBA0083120130010203138312031CF02F08006D
:100FCA000A128A11F027031383128B1363008B13FF
:100FDA000A128A11C72E03138316071177300313D7
:100FEA00831692000310120C031383129500031345
:060FFA008312121508002D
:04400E00F42CFF3E51
:00000001FF
